{
  "contractName": "IntroMoney",
  "abi": [
    {
      "inputs": [
        {
          "internalType": "uint256",
          "name": "_messageId",
          "type": "uint256"
        },
        {
          "internalType": "uint256",
          "name": "_userId",
          "type": "uint256"
        },
        {
          "internalType": "uint32",
          "name": "_conversationId",
          "type": "uint32"
        },
        {
          "internalType": "address",
          "name": "_owner",
          "type": "address"
        }
      ],
      "payable": false,
      "stateMutability": "nonpayable",
      "type": "constructor"
    },
    {
      "anonymous": false,
      "inputs": [
        {
          "indexed": true,
          "internalType": "address",
          "name": "_from",
          "type": "address"
        },
        {
          "indexed": false,
          "internalType": "uint256",
          "name": "_messageId",
          "type": "uint256"
        }
      ],
      "name": "CreateMessage",
      "type": "event"
    },
    {
      "anonymous": false,
      "inputs": [
        {
          "indexed": true,
          "internalType": "address",
          "name": "_from",
          "type": "address"
        },
        {
          "indexed": false,
          "internalType": "uint256",
          "name": "_value",
          "type": "uint256"
        }
      ],
      "name": "Deposit",
      "type": "event"
    },
    {
      "anonymous": false,
      "inputs": [
        {
          "indexed": true,
          "internalType": "address",
          "name": "_from",
          "type": "address"
        }
      ],
      "name": "Register",
      "type": "event"
    },
    {
      "constant": true,
      "inputs": [
        {
          "internalType": "address",
          "name": "",
          "type": "address"
        }
      ],
      "name": "users",
      "outputs": [
        {
          "internalType": "uint256",
          "name": "id",
          "type": "uint256"
        },
        {
          "internalType": "uint256",
          "name": "balance",
          "type": "uint256"
        },
        {
          "internalType": "bytes32",
          "name": "username",
          "type": "bytes32"
        },
        {
          "internalType": "bool",
          "name": "exists",
          "type": "bool"
        }
      ],
      "payable": false,
      "stateMutability": "view",
      "type": "function"
    },
    {
      "constant": true,
      "inputs": [
        {
          "internalType": "uint256",
          "name": "",
          "type": "uint256"
        }
      ],
      "name": "usersList",
      "outputs": [
        {
          "internalType": "address",
          "name": "",
          "type": "address"
        }
      ],
      "payable": false,
      "stateMutability": "view",
      "type": "function"
    },
    {
      "constant": false,
      "inputs": [
        {
          "internalType": "bytes",
          "name": "_encryptedMessage",
          "type": "bytes"
        },
        {
          "internalType": "uint256",
          "name": "_readReward",
          "type": "uint256"
        },
        {
          "internalType": "uint256",
          "name": "_replyReward",
          "type": "uint256"
        }
      ],
      "name": "createConversation",
      "outputs": [
        {
          "internalType": "bool",
          "name": "",
          "type": "bool"
        }
      ],
      "payable": false,
      "stateMutability": "nonpayable",
      "type": "function"
    },
    {
      "constant": false,
      "inputs": [
        {
          "internalType": "uint32",
          "name": "_conversationId",
          "type": "uint32"
        },
        {
          "internalType": "bytes",
          "name": "_encryptedMessage",
          "type": "bytes"
        },
        {
          "internalType": "address",
          "name": "_participant",
          "type": "address"
        }
      ],
      "name": "addMessageToConversation",
      "outputs": [
        {
          "internalType": "bool",
          "name": "",
          "type": "bool"
        }
      ],
      "payable": false,
      "stateMutability": "nonpayable",
      "type": "function"
    },
    {
      "constant": false,
      "inputs": [
        {
          "internalType": "uint32",
          "name": "_conversationId",
          "type": "uint32"
        },
        {
          "internalType": "address",
          "name": "_participant",
          "type": "address"
        }
      ],
      "name": "readConversationByParticipant",
      "outputs": [
        {
          "internalType": "bool",
          "name": "",
          "type": "bool"
        }
      ],
      "payable": false,
      "stateMutability": "nonpayable",
      "type": "function"
    },
    {
      "constant": true,
      "inputs": [
        {
          "internalType": "address",
          "name": "_owner",
          "type": "address"
        }
      ],
      "name": "isOwner",
      "outputs": [
        {
          "internalType": "bool",
          "name": "",
          "type": "bool"
        }
      ],
      "payable": false,
      "stateMutability": "view",
      "type": "function"
    },
    {
      "constant": true,
      "inputs": [],
      "name": "getConversations",
      "outputs": [
        {
          "components": [
            {
              "internalType": "address",
              "name": "owner",
              "type": "address"
            },
            {
              "internalType": "address",
              "name": "recipient",
              "type": "address"
            },
            {
              "internalType": "uint256",
              "name": "readReward",
              "type": "uint256"
            },
            {
              "internalType": "uint256",
              "name": "replyReward",
              "type": "uint256"
            },
            {
              "internalType": "bool",
              "name": "exists",
              "type": "bool"
            },
            {
              "components": [
                {
                  "internalType": "uint256",
                  "name": "id",
                  "type": "uint256"
                },
                {
                  "internalType": "address",
                  "name": "owner",
                  "type": "address"
                },
                {
                  "internalType": "bytes",
                  "name": "text",
                  "type": "bytes"
                },
                {
                  "internalType": "bool",
                  "name": "exists",
                  "type": "bool"
                }
              ],
              "internalType": "struct IntroMoney.ConversationMessage[]",
              "name": "messages",
              "type": "tuple[]"
            },
            {
              "internalType": "uint32",
              "name": "id",
              "type": "uint32"
            },
            {
              "internalType": "uint256",
              "name": "messageId",
              "type": "uint256"
            }
          ],
          "internalType": "struct IntroMoney.Conversation[]",
          "name": "",
          "type": "tuple[]"
        }
      ],
      "payable": false,
      "stateMutability": "view",
      "type": "function"
    },
    {
      "constant": true,
      "inputs": [
        {
          "internalType": "uint32",
          "name": "_conversationId",
          "type": "uint32"
        }
      ],
      "name": "getConversation",
      "outputs": [
        {
          "components": [
            {
              "internalType": "address",
              "name": "owner",
              "type": "address"
            },
            {
              "internalType": "address",
              "name": "recipient",
              "type": "address"
            },
            {
              "internalType": "uint256",
              "name": "readReward",
              "type": "uint256"
            },
            {
              "internalType": "uint256",
              "name": "replyReward",
              "type": "uint256"
            },
            {
              "internalType": "bool",
              "name": "exists",
              "type": "bool"
            },
            {
              "components": [
                {
                  "internalType": "uint256",
                  "name": "id",
                  "type": "uint256"
                },
                {
                  "internalType": "address",
                  "name": "owner",
                  "type": "address"
                },
                {
                  "internalType": "bytes",
                  "name": "text",
                  "type": "bytes"
                },
                {
                  "internalType": "bool",
                  "name": "exists",
                  "type": "bool"
                }
              ],
              "internalType": "struct IntroMoney.ConversationMessage[]",
              "name": "messages",
              "type": "tuple[]"
            },
            {
              "internalType": "uint32",
              "name": "id",
              "type": "uint32"
            },
            {
              "internalType": "uint256",
              "name": "messageId",
              "type": "uint256"
            }
          ],
          "internalType": "struct IntroMoney.Conversation",
          "name": "",
          "type": "tuple"
        }
      ],
      "payable": false,
      "stateMutability": "view",
      "type": "function"
    },
    {
      "constant": false,
      "inputs": [
        {
          "internalType": "bytes32",
          "name": "_username",
          "type": "bytes32"
        }
      ],
      "name": "register",
      "outputs": [
        {
          "internalType": "bool",
          "name": "",
          "type": "bool"
        }
      ],
      "payable": false,
      "stateMutability": "nonpayable",
      "type": "function"
    },
    {
      "constant": true,
      "inputs": [
        {
          "internalType": "address",
          "name": "sender",
          "type": "address"
        }
      ],
      "name": "isRegistered",
      "outputs": [
        {
          "internalType": "bool",
          "name": "",
          "type": "bool"
        }
      ],
      "payable": false,
      "stateMutability": "view",
      "type": "function"
    },
    {
      "constant": false,
      "inputs": [],
      "name": "deposit",
      "outputs": [
        {
          "internalType": "bool",
          "name": "",
          "type": "bool"
        }
      ],
      "payable": true,
      "stateMutability": "payable",
      "type": "function"
    },
    {
      "constant": true,
      "inputs": [],
      "name": "balance",
      "outputs": [
        {
          "internalType": "uint256",
          "name": "",
          "type": "uint256"
        }
      ],
      "payable": false,
      "stateMutability": "view",
      "type": "function"
    },
    {
      "constant": true,
      "inputs": [],
      "name": "username",
      "outputs": [
        {
          "internalType": "bytes32",
          "name": "",
          "type": "bytes32"
        }
      ],
      "payable": false,
      "stateMutability": "view",
      "type": "function"
    },
    {
      "constant": false,
      "inputs": [
        {
          "internalType": "bytes32[]",
          "name": "_encryptedMessages",
          "type": "bytes32[]"
        },
        {
          "internalType": "uint256",
          "name": "_readReward",
          "type": "uint256"
        },
        {
          "internalType": "uint256",
          "name": "_replyReward",
          "type": "uint256"
        }
      ],
      "name": "createMessages",
      "outputs": [
        {
          "internalType": "bool",
          "name": "",
          "type": "bool"
        }
      ],
      "payable": false,
      "stateMutability": "nonpayable",
      "type": "function"
    },
    {
      "constant": false,
      "inputs": [
        {
          "internalType": "bytes",
          "name": "_encryptedMessage",
          "type": "bytes"
        },
        {
          "internalType": "uint256",
          "name": "_readReward",
          "type": "uint256"
        },
        {
          "internalType": "uint256",
          "name": "_replyReward",
          "type": "uint256"
        }
      ],
      "name": "createMessage",
      "outputs": [
        {
          "internalType": "bool",
          "name": "",
          "type": "bool"
        }
      ],
      "payable": false,
      "stateMutability": "nonpayable",
      "type": "function"
    },
    {
      "constant": true,
      "inputs": [],
      "name": "getMessages",
      "outputs": [
        {
          "components": [
            {
              "internalType": "uint256",
              "name": "id",
              "type": "uint256"
            },
            {
              "internalType": "address",
              "name": "owner",
              "type": "address"
            },
            {
              "internalType": "string",
              "name": "text",
              "type": "string"
            },
            {
              "internalType": "address[]",
              "name": "reader",
              "type": "address[]"
            },
            {
              "internalType": "bytes[]",
              "name": "encryptedMessages",
              "type": "bytes[]"
            },
            {
              "internalType": "bytes32[]",
              "name": "usedPasswords",
              "type": "bytes32[]"
            },
            {
              "internalType": "uint256",
              "name": "readReward",
              "type": "uint256"
            },
            {
              "internalType": "uint256",
              "name": "replyReward",
              "type": "uint256"
            },
            {
              "internalType": "bool",
              "name": "exists",
              "type": "bool"
            }
          ],
          "internalType": "struct IntroMoney.Message[]",
          "name": "",
          "type": "tuple[]"
        }
      ],
      "payable": false,
      "stateMutability": "view",
      "type": "function"
    },
    {
      "constant": false,
      "inputs": [
        {
          "internalType": "address",
          "name": "recipientAddress",
          "type": "address"
        },
        {
          "internalType": "address",
          "name": "fromAddress",
          "type": "address"
        },
        {
          "internalType": "uint256",
          "name": "amount",
          "type": "uint256"
        }
      ],
      "name": "transfer",
      "outputs": [
        {
          "internalType": "bool",
          "name": "",
          "type": "bool"
        }
      ],
      "payable": false,
      "stateMutability": "nonpayable",
      "type": "function"
    },
    {
      "constant": false,
      "inputs": [],
      "name": "widthraw",
      "outputs": [
        {
          "internalType": "bool",
          "name": "",
          "type": "bool"
        }
      ],
      "payable": false,
      "stateMutability": "nonpayable",
      "type": "function"
    }
  ],
  "bytecode": "0x60806040523480156200001157600080fd5b50604051620044c5380380620044c58339818101604052620000379190810190620000f5565b8360048190555082600181905550806000806101000a81548173ffffffffffffffffffffffffffffffffffffffff021916908373ffffffffffffffffffffffffffffffffffffffff16021790555081600660006101000a81548163ffffffff021916908363ffffffff16021790555050505050620001fd565b600081519050620000c181620001af565b92915050565b600081519050620000d881620001c9565b92915050565b600081519050620000ef81620001e3565b92915050565b600080600080608085870312156200010c57600080fd5b60006200011c87828801620000c7565b94505060206200012f87828801620000c7565b93505060406200014287828801620000de565b92505060606200015587828801620000b0565b91505092959194509250565b60006200016e8262000175565b9050919050565b600073ffffffffffffffffffffffffffffffffffffffff82169050919050565b6000819050919050565b600063ffffffff82169050919050565b620001ba8162000161565b8114620001c657600080fd5b50565b620001d48162000195565b8114620001e057600080fd5b50565b620001ee816200019f565b8114620001fa57600080fd5b50565b6142b8806200020d6000396000f3fe6080604052600436106101095760003560e01c8063aa3ba17911610095578063c3c5a54711610064578063c3c5a547146103e2578063d0e30db01461041f578063d6898b921461043d578063e1fa8e841461047a578063f86e5761146104b757610109565b8063aa3ba17914610312578063b69ef8a81461033d578063be1f610214610368578063beabacc8146103a557610109565b806361fac54d116100dc57806361fac54d146101f05780636a6859cb1461021b57806372f03ae1146102585780637929038914610295578063a87430ba146102d257610109565b80632f54bf6e1461010e578063502aa3b51461014b57806350a9c990146101885780635ff6cbf3146101c5575b600080fd5b34801561011a57600080fd5b506101356004803603610130919081019061325d565b6104e2565b6040516101429190613dac565b60405180910390f35b34801561015757600080fd5b50610172600480360361016d91908101906133cc565b61053b565b60405161017f9190613d4d565b60405180910390f35b34801561019457600080fd5b506101af60048036036101aa91908101906132d5565b610577565b6040516101bc9190613dac565b60405180910390f35b3480156101d157600080fd5b506101da61076f565b6040516101e79190613d8a565b60405180910390f35b3480156101fc57600080fd5b50610205610bf3565b6040516102129190613dc7565b60405180910390f35b34801561022757600080fd5b50610242600480360361023d91908101906133f5565b610c4f565b60405161024f9190613ec2565b60405180910390f35b34801561026457600080fd5b5061027f600480360361027a9190810190613365565b611168565b60405161028c9190613dac565b60405180910390f35b3480156102a157600080fd5b506102bc60048036036102b7919081019061345a565b61138a565b6040516102c99190613dac565b60405180910390f35b3480156102de57600080fd5b506102f960048036036102f4919081019061325d565b611a28565b6040516103099493929190613eff565b60405180910390f35b34801561031e57600080fd5b50610327611a65565b6040516103349190613dac565b60405180910390f35b34801561034957600080fd5b50610352611a6a565b60405161035f9190613ee4565b60405180910390f35b34801561037457600080fd5b5061038f600480360361038a9190810190613365565b611ac6565b60405161039c9190613dac565b60405180910390f35b3480156103b157600080fd5b506103cc60048036036103c79190810190613286565b611f3b565b6040516103d99190613dac565b60405180910390f35b3480156103ee57600080fd5b506104096004803603610404919081019061325d565b611f44565b6040516104169190613dac565b60405180910390f35b610427611f9d565b6040516104349190613dac565b60405180910390f35b34801561044957600080fd5b50610464600480360361045f919081019061341e565b612056565b6040516104719190613dac565b60405180910390f35b34801561048657600080fd5b506104a1600480360361049c919081019061333c565b61253f565b6040516104ae9190613dac565b60405180910390f35b3480156104c357600080fd5b506104cc612659565b6040516104d99190613d68565b60405180910390f35b60008173ffffffffffffffffffffffffffffffffffffffff166000809054906101000a900473ffffffffffffffffffffffffffffffffffffffff1673ffffffffffffffffffffffffffffffffffffffff16149050919050565b6003818154811061054857fe5b906000526020600020016000915054906101000a900473ffffffffffffffffffffffffffffffffffffffff1681565b600061058233611f44565b61058b57600080fd5b600084511161059957600080fd5b3360056000600454815260200190815260200160002060010160006101000a81548173ffffffffffffffffffffffffffffffffffffffff021916908373ffffffffffffffffffffffffffffffffffffffff16021790555060045460056000600454815260200190815260200160002060000181905550600160056000600454815260200190815260200160002060080160006101000a81548160ff0219169083151502179055508260056000600454815260200190815260200160002060060181905550816005600060045481526020019081526020016000206007018190555060008090505b8451811015610696578080600101915050610680565b50600c60003373ffffffffffffffffffffffffffffffffffffffff1673ffffffffffffffffffffffffffffffffffffffff16815260200190815260200160002060045490806001815401808255809150509060018203906000526020600020016000909192909190915055503373ffffffffffffffffffffffffffffffffffffffff167f9bdf4e32f096b953edf557b7bf902752ac6e4cf2465bf5b8e33e8f7886f3e5ed60045460405161074a9190613ee4565b60405180910390a2600460008154809291906001019190505550600190509392505050565b606061077a33611f44565b61078357600080fd5b6060600c60003373ffffffffffffffffffffffffffffffffffffffff1673ffffffffffffffffffffffffffffffffffffffff1681526020019081526020016000208054905060405190808252806020026020018201604052801561080157816020015b6107ee612e77565b8152602001906001900390816107e65790505b50905060008090505b600c60003373ffffffffffffffffffffffffffffffffffffffff1673ffffffffffffffffffffffffffffffffffffffff16815260200190815260200160002080549050811015610beb5760056000600c60003373ffffffffffffffffffffffffffffffffffffffff1673ffffffffffffffffffffffffffffffffffffffff16815260200190815260200160002083815481106108a257fe5b9060005260206000200154815260200190815260200160002060405180610120016040529081600082015481526020016001820160009054906101000a900473ffffffffffffffffffffffffffffffffffffffff1673ffffffffffffffffffffffffffffffffffffffff1673ffffffffffffffffffffffffffffffffffffffff168152602001600282018054600181600116156101000203166002900480601f0160208091040260200160405190810160405280929190818152602001828054600181600116156101000203166002900480156109c05780601f10610995576101008083540402835291602001916109c0565b820191906000526020600020905b8154815290600101906020018083116109a357829003601f168201915b5050505050815260200160038201805480602002602001604051908101604052809291908181526020018280548015610a4e57602002820191906000526020600020905b8160009054906101000a900473ffffffffffffffffffffffffffffffffffffffff1673ffffffffffffffffffffffffffffffffffffffff1681526020019060010190808311610a04575b5050505050815260200160048201805480602002602001604051908101604052809291908181526020016000905b82821015610b38578382906000526020600020018054600181600116156101000203166002900480601f016020809104026020016040519081016040528092919081815260200182805460018160011615610100020316600290048015610b245780601f10610af957610100808354040283529160200191610b24565b820191906000526020600020905b815481529060010190602001808311610b0757829003601f168201915b505050505081526020019060010190610a7c565b50505050815260200160058201805480602002602001604051908101604052809291908181526020018280548015610b8f57602002820191906000526020600020905b815481526020019060010190808311610b7b575b5050505050815260200160068201548152602001600782015481526020016008820160009054906101000a900460ff161515151581525050828281518110610bd357fe5b6020026020010181905250808060010191505061080a565b508091505090565b6000610bfe33611f44565b610c0757600080fd5b600260003373ffffffffffffffffffffffffffffffffffffffff1673ffffffffffffffffffffffffffffffffffffffff16815260200190815260200160002060020154905090565b610c57612edb565b610c6033611f44565b610c9f576040517f08c379a0000000000000000000000000000000000000000000000000000000008152600401610c9690613e62565b60405180910390fd5b600960008363ffffffff1663ffffffff16815260200190815260200160002060040160009054906101000a900460ff16610d0e576040517f08c379a0000000000000000000000000000000000000000000000000000000008152600401610d0590613e22565b60405180910390fd5b600073ffffffffffffffffffffffffffffffffffffffff16600960008463ffffffff1663ffffffff16815260200190815260200160002060010160009054906101000a900473ffffffffffffffffffffffffffffffffffffffff1673ffffffffffffffffffffffffffffffffffffffff161480610df857503373ffffffffffffffffffffffffffffffffffffffff16600960008463ffffffff1663ffffffff16815260200190815260200160002060010160009054906101000a900473ffffffffffffffffffffffffffffffffffffffff1673ffffffffffffffffffffffffffffffffffffffff16145b80610e7057503373ffffffffffffffffffffffffffffffffffffffff16600960008463ffffffff1663ffffffff16815260200190815260200160002060000160009054906101000a900473ffffffffffffffffffffffffffffffffffffffff1673ffffffffffffffffffffffffffffffffffffffff16145b610eaf576040517f08c379a0000000000000000000000000000000000000000000000000000000008152600401610ea690613e42565b60405180910390fd5b600960008363ffffffff1663ffffffff168152602001908152602001600020604051806101000160405290816000820160009054906101000a900473ffffffffffffffffffffffffffffffffffffffff1673ffffffffffffffffffffffffffffffffffffffff1673ffffffffffffffffffffffffffffffffffffffff1681526020016001820160009054906101000a900473ffffffffffffffffffffffffffffffffffffffff1673ffffffffffffffffffffffffffffffffffffffff1673ffffffffffffffffffffffffffffffffffffffff16815260200160028201548152602001600382015481526020016004820160009054906101000a900460ff1615151515815260200160058201805480602002602001604051908101604052809291908181526020016000905b828210156111295783829060005260206000209060040201604051806080016040529081600082015481526020016001820160009054906101000a900473ffffffffffffffffffffffffffffffffffffffff1673ffffffffffffffffffffffffffffffffffffffff1673ffffffffffffffffffffffffffffffffffffffff168152602001600282018054600181600116156101000203166002900480601f0160208091040260200160405190810160405280929190818152602001828054600181600116156101000203166002900480156110f65780601f106110cb576101008083540402835291602001916110f6565b820191906000526020600020905b8154815290600101906020018083116110d957829003601f168201915b505050505081526020016003820160009054906101000a900460ff16151515158152505081526020019060010190610fda565b5050505081526020016006820160009054906101000a900463ffffffff1663ffffffff1663ffffffff1681526020016007820154815250509050919050565b600061117333611f44565b61117c57600080fd5b3360056000600454815260200190815260200160002060010160006101000a81548173ffffffffffffffffffffffffffffffffffffffff021916908373ffffffffffffffffffffffffffffffffffffffff16021790555060045460056000600454815260200190815260200160002060000181905550600160056000600454815260200190815260200160002060080160006101000a81548160ff021916908315150217905550826005600060045481526020019081526020016000206006018190555081600560006004548152602001908152602001600020600701819055506005600060045481526020019081526020016000206004018490806001815401808255809150509060018203906000526020600020016000909192909190915090805190602001906112b0929190612f54565b5050600c60003373ffffffffffffffffffffffffffffffffffffffff1673ffffffffffffffffffffffffffffffffffffffff16815260200190815260200160002060045490806001815401808255809150509060018203906000526020600020016000909192909190915055503373ffffffffffffffffffffffffffffffffffffffff167f9bdf4e32f096b953edf557b7bf902752ac6e4cf2465bf5b8e33e8f7886f3e5ed6004546040516113659190613ee4565b60405180910390a2600460008154809291906001019190505550600190509392505050565b6000611395336104e2565b6113d4576040517f08c379a00000000000000000000000000000000000000000000000000000000081526004016113cb90613de2565b60405180910390fd5b60011515600960008663ffffffff1663ffffffff16815260200190815260200160002060040160009054906101000a900460ff1615151461144a576040517f08c379a000000000000000000000000000000000000000000000000000000000815260040161144190613ea2565b60405180910390fd5b8173ffffffffffffffffffffffffffffffffffffffff16600960008663ffffffff1663ffffffff16815260200190815260200160002060000160009054906101000a900473ffffffffffffffffffffffffffffffffffffffff1673ffffffffffffffffffffffffffffffffffffffff16148061153357508173ffffffffffffffffffffffffffffffffffffffff16600960008663ffffffff1663ffffffff16815260200190815260200160002060010160009054906101000a900473ffffffffffffffffffffffffffffffffffffffff1673ffffffffffffffffffffffffffffffffffffffff16145b611572576040517f08c379a000000000000000000000000000000000000000000000000000000000815260040161156990613e02565b60405180910390fd5b8173ffffffffffffffffffffffffffffffffffffffff16600960008663ffffffff1663ffffffff16815260200190815260200160002060010160009054906101000a900473ffffffffffffffffffffffffffffffffffffffff1673ffffffffffffffffffffffffffffffffffffffff1614801561165a5750600073ffffffffffffffffffffffffffffffffffffffff16600b60008663ffffffff1663ffffffff16815260200190815260200160002060009054906101000a900473ffffffffffffffffffffffffffffffffffffffff1673ffffffffffffffffffffffffffffffffffffffff16145b1561186f57600960008563ffffffff1663ffffffff1681526020019081526020016000206003015460026000600960008863ffffffff1663ffffffff16815260200190815260200160002060000160009054906101000a900473ffffffffffffffffffffffffffffffffffffffff1673ffffffffffffffffffffffffffffffffffffffff1673ffffffffffffffffffffffffffffffffffffffff168152602001908152602001600020600101541015611748576040517f08c379a000000000000000000000000000000000000000000000000000000000815260040161173f90613e82565b60405180910390fd5b600960008563ffffffff1663ffffffff1681526020019081526020016000206003015460026000600960008863ffffffff1663ffffffff16815260200190815260200160002060000160009054906101000a900473ffffffffffffffffffffffffffffffffffffffff1673ffffffffffffffffffffffffffffffffffffffff1673ffffffffffffffffffffffffffffffffffffffff16815260200190815260200160002060010160008282540392505081905550600960008563ffffffff1663ffffffff16815260200190815260200160002060030154600260008473ffffffffffffffffffffffffffffffffffffffff1673ffffffffffffffffffffffffffffffffffffffff168152602001908152602001600020600101600082825401925050819055505b611877612fd4565b604051806080016040528060096000600660009054906101000a900463ffffffff1663ffffffff1663ffffffff1681526020019081526020016000206007015481526020018473ffffffffffffffffffffffffffffffffffffffff16815260200185815260200160011515815250905060096000600660009054906101000a900463ffffffff1663ffffffff1663ffffffff16815260200190815260200160002060050181908060018154018082558091505090600182039060005260206000209060040201600090919290919091506000820151816000015560208201518160010160006101000a81548173ffffffffffffffffffffffffffffffffffffffff021916908373ffffffffffffffffffffffffffffffffffffffff16021790555060408201518160020190805190602001906119b4929190613014565b5060608201518160030160006101000a81548160ff02191690831515021790555050505060096000600660009054906101000a900463ffffffff1663ffffffff1663ffffffff1681526020019081526020016000206007016000815480929190600101919050555060019150509392505050565b60026020528060005260406000206000915090508060000154908060010154908060020154908060030160009054906101000a900460ff16905084565b600090565b6000611a7533611f44565b611a7e57600080fd5b600260003373ffffffffffffffffffffffffffffffffffffffff1673ffffffffffffffffffffffffffffffffffffffff16815260200190815260200160002060010154905090565b6000611ad133611f44565b611b10576040517f08c379a0000000000000000000000000000000000000000000000000000000008152600401611b0790613e62565b60405180910390fd5b3360096000600660009054906101000a900463ffffffff1663ffffffff1663ffffffff16815260200190815260200160002060000160006101000a81548173ffffffffffffffffffffffffffffffffffffffff021916908373ffffffffffffffffffffffffffffffffffffffff1602179055508260096000600660009054906101000a900463ffffffff1663ffffffff1663ffffffff168152602001908152602001600020600201819055508160096000600660009054906101000a900463ffffffff1663ffffffff1663ffffffff16815260200190815260200160002060030181905550600160096000600660009054906101000a900463ffffffff1663ffffffff1663ffffffff16815260200190815260200160002060040160006101000a81548160ff021916908315150217905550611c4a612fd4565b604051806080016040528060096000600660009054906101000a900463ffffffff1663ffffffff1663ffffffff1681526020019081526020016000206007015481526020013373ffffffffffffffffffffffffffffffffffffffff16815260200186815260200160011515815250905060096000600660009054906101000a900463ffffffff1663ffffffff1663ffffffff16815260200190815260200160002060050181908060018154018082558091505090600182039060005260206000209060040201600090919290919091506000820151816000015560208201518160010160006101000a81548173ffffffffffffffffffffffffffffffffffffffff021916908373ffffffffffffffffffffffffffffffffffffffff1602179055506040820151816002019080519060200190611d87929190613014565b5060608201518160030160006101000a81548160ff021916908315150217905550505050600760003373ffffffffffffffffffffffffffffffffffffffff1673ffffffffffffffffffffffffffffffffffffffff168152602001908152602001600020600660009054906101000a900463ffffffff16908060018154018082558091505090600182039060005260206000209060089182820401919006600402909192909190916101000a81548163ffffffff021916908363ffffffff1602179055505060096000600660009054906101000a900463ffffffff1663ffffffff1663ffffffff16815260200190815260200160002060070160008154809291906001019190505550600660009054906101000a900463ffffffff1660096000600660009054906101000a900463ffffffff1663ffffffff1663ffffffff16815260200190815260200160002060060160006101000a81548163ffffffff021916908363ffffffff1602179055506006600081819054906101000a900463ffffffff168092919060010191906101000a81548163ffffffff021916908363ffffffff1602179055505060019150509392505050565b60009392505050565b6000600260008373ffffffffffffffffffffffffffffffffffffffff1673ffffffffffffffffffffffffffffffffffffffff16815260200190815260200160002060030160009054906101000a900460ff169050919050565b6000611fa833611f44565b611fb157600080fd5b34600260003373ffffffffffffffffffffffffffffffffffffffff1673ffffffffffffffffffffffffffffffffffffffff168152602001908152602001600020600101600082825401925050819055503373ffffffffffffffffffffffffffffffffffffffff167fe1fffcc4923d04b559f4d29a8bfc6cda04eb5b0d3c460751c2402c5c5cc9109c346040516120479190613ee4565b60405180910390a26001905090565b6000612061336104e2565b6120a0576040517f08c379a000000000000000000000000000000000000000000000000000000000815260040161209790613de2565b60405180910390fd5b60011515600960008563ffffffff1663ffffffff16815260200190815260200160002060040160009054906101000a900460ff16151514612116576040517f08c379a000000000000000000000000000000000000000000000000000000000815260040161210d90613ea2565b60405180910390fd5b600073ffffffffffffffffffffffffffffffffffffffff16600960008563ffffffff1663ffffffff16815260200190815260200160002060010160009054906101000a900473ffffffffffffffffffffffffffffffffffffffff1673ffffffffffffffffffffffffffffffffffffffff16146121c7576040517f08c379a00000000000000000000000000000000000000000000000000000000081526004016121be90613e42565b60405180910390fd5b600960008463ffffffff1663ffffffff1681526020019081526020016000206002015460026000600960008763ffffffff1663ffffffff16815260200190815260200160002060000160009054906101000a900473ffffffffffffffffffffffffffffffffffffffff1673ffffffffffffffffffffffffffffffffffffffff1673ffffffffffffffffffffffffffffffffffffffff1681526020019081526020016000206001015410156122b0576040517f08c379a00000000000000000000000000000000000000000000000000000000081526004016122a790613e82565b60405180910390fd5b81600960008563ffffffff1663ffffffff16815260200190815260200160002060010160006101000a81548173ffffffffffffffffffffffffffffffffffffffff021916908373ffffffffffffffffffffffffffffffffffffffff160217905550600960008463ffffffff1663ffffffff1681526020019081526020016000206002015460026000600960008763ffffffff1663ffffffff16815260200190815260200160002060000160009054906101000a900473ffffffffffffffffffffffffffffffffffffffff1673ffffffffffffffffffffffffffffffffffffffff1673ffffffffffffffffffffffffffffffffffffffff16815260200190815260200160002060010160008282540392505081905550600960008463ffffffff1663ffffffff16815260200190815260200160002060020154600260008473ffffffffffffffffffffffffffffffffffffffff1673ffffffffffffffffffffffffffffffffffffffff16815260200190815260200160002060010160008282540192505081905550600860008373ffffffffffffffffffffffffffffffffffffffff1673ffffffffffffffffffffffffffffffffffffffff168152602001908152602001600020600660009054906101000a900463ffffffff16908060018154018082558091505090600182039060005260206000209060089182820401919006600402909192909190916101000a81548163ffffffff021916908363ffffffff1602179055505081600a60008563ffffffff1663ffffffff16815260200190815260200160002060006101000a81548173ffffffffffffffffffffffffffffffffffffffff021916908373ffffffffffffffffffffffffffffffffffffffff1602179055506001905092915050565b600061254a33611f44565b1561255457600080fd5b604051806080016040528060015481526020016000815260200183815260200160011515815250600260003373ffffffffffffffffffffffffffffffffffffffff1673ffffffffffffffffffffffffffffffffffffffff16815260200190815260200160002060008201518160000155602082015181600101556040820151816002015560608201518160030160006101000a81548160ff0219169083151502179055509050503373ffffffffffffffffffffffffffffffffffffffff167feeda149c76076b34d4b9d8896c2f7efc0d33d1c7b53ea3c5db490d64613f603a60405160405180910390a260016000815480929190600101919050555060019050919050565b606061266433611f44565b61266d57600080fd5b6060600860003373ffffffffffffffffffffffffffffffffffffffff1673ffffffffffffffffffffffffffffffffffffffff16815260200190815260200160002080549050600760003373ffffffffffffffffffffffffffffffffffffffff1673ffffffffffffffffffffffffffffffffffffffff168152602001908152602001600020805490500160405190808252806020026020018201604052801561272f57816020015b61271c613094565b8152602001906001900390816127145790505b509050600080905060008090505b600760003373ffffffffffffffffffffffffffffffffffffffff1673ffffffffffffffffffffffffffffffffffffffff16815260200190815260200160002080549050811015612ad25760096000600760003373ffffffffffffffffffffffffffffffffffffffff1673ffffffffffffffffffffffffffffffffffffffff16815260200190815260200160002083815481106127d557fe5b90600052602060002090600891828204019190066004029054906101000a900463ffffffff1663ffffffff1663ffffffff168152602001908152602001600020604051806101000160405290816000820160009054906101000a900473ffffffffffffffffffffffffffffffffffffffff1673ffffffffffffffffffffffffffffffffffffffff1673ffffffffffffffffffffffffffffffffffffffff1681526020016001820160009054906101000a900473ffffffffffffffffffffffffffffffffffffffff1673ffffffffffffffffffffffffffffffffffffffff1673ffffffffffffffffffffffffffffffffffffffff16815260200160028201548152602001600382015481526020016004820160009054906101000a900460ff1615151515815260200160058201805480602002602001604051908101604052809291908181526020016000905b82821015612a705783829060005260206000209060040201604051806080016040529081600082015481526020016001820160009054906101000a900473ffffffffffffffffffffffffffffffffffffffff1673ffffffffffffffffffffffffffffffffffffffff1673ffffffffffffffffffffffffffffffffffffffff168152602001600282018054600181600116156101000203166002900480601f016020809104026020016040519081016040528092919081815260200182805460018160011615610100020316600290048015612a3d5780601f10612a1257610100808354040283529160200191612a3d565b820191906000526020600020905b815481529060010190602001808311612a2057829003601f168201915b505050505081526020016003820160009054906101000a900460ff16151515158152505081526020019060010190612921565b5050505081526020016006820160009054906101000a900463ffffffff1663ffffffff1663ffffffff168152602001600782015481525050838380600101945081518110612aba57fe5b6020026020010181905250808060010191505061273d565b5060008090505b600860003373ffffffffffffffffffffffffffffffffffffffff1673ffffffffffffffffffffffffffffffffffffffff16815260200190815260200160002080549050811015612e6e5760096000600860003373ffffffffffffffffffffffffffffffffffffffff1673ffffffffffffffffffffffffffffffffffffffff1681526020019081526020016000208381548110612b7157fe5b90600052602060002090600891828204019190066004029054906101000a900463ffffffff1663ffffffff1663ffffffff168152602001908152602001600020604051806101000160405290816000820160009054906101000a900473ffffffffffffffffffffffffffffffffffffffff1673ffffffffffffffffffffffffffffffffffffffff1673ffffffffffffffffffffffffffffffffffffffff1681526020016001820160009054906101000a900473ffffffffffffffffffffffffffffffffffffffff1673ffffffffffffffffffffffffffffffffffffffff1673ffffffffffffffffffffffffffffffffffffffff16815260200160028201548152602001600382015481526020016004820160009054906101000a900460ff1615151515815260200160058201805480602002602001604051908101604052809291908181526020016000905b82821015612e0c5783829060005260206000209060040201604051806080016040529081600082015481526020016001820160009054906101000a900473ffffffffffffffffffffffffffffffffffffffff1673ffffffffffffffffffffffffffffffffffffffff1673ffffffffffffffffffffffffffffffffffffffff168152602001600282018054600181600116156101000203166002900480601f016020809104026020016040519081016040528092919081815260200182805460018160011615610100020316600290048015612dd95780601f10612dae57610100808354040283529160200191612dd9565b820191906000526020600020905b815481529060010190602001808311612dbc57829003601f168201915b505050505081526020016003820160009054906101000a900460ff16151515158152505081526020019060010190612cbd565b5050505081526020016006820160009054906101000a900463ffffffff1663ffffffff1663ffffffff168152602001600782015481525050838380600101945081518110612e5657fe5b60200260200101819052508080600101915050612ad9565b50819250505090565b60405180610120016040528060008152602001600073ffffffffffffffffffffffffffffffffffffffff1681526020016060815260200160608152602001606081526020016060815260200160008152602001600081526020016000151581525090565b604051806101000160405280600073ffffffffffffffffffffffffffffffffffffffff168152602001600073ffffffffffffffffffffffffffffffffffffffff168152602001600081526020016000815260200160001515815260200160608152602001600063ffffffff168152602001600081525090565b828054600181600116156101000203166002900490600052602060002090601f016020900481019282601f10612f9557805160ff1916838001178555612fc3565b82800160010185558215612fc3579182015b82811115612fc2578251825591602001919060010190612fa7565b5b509050612fd0919061310d565b5090565b604051806080016040528060008152602001600073ffffffffffffffffffffffffffffffffffffffff168152602001606081526020016000151581525090565b828054600181600116156101000203166002900490600052602060002090601f016020900481019282601f1061305557805160ff1916838001178555613083565b82800160010185558215613083579182015b82811115613082578251825591602001919060010190613067565b5b509050613090919061310d565b5090565b604051806101000160405280600073ffffffffffffffffffffffffffffffffffffffff168152602001600073ffffffffffffffffffffffffffffffffffffffff168152602001600081526020016000815260200160001515815260200160608152602001600063ffffffff168152602001600081525090565b61312f91905b8082111561312b576000816000905550600101613113565b5090565b90565b60008135905061314181614219565b92915050565b600082601f83011261315857600080fd5b813561316b61316682613f71565b613f44565b9150818183526020840193506020810190508385602084028201111561319057600080fd5b60005b838110156131c057816131a688826131ca565b845260208401935060208301925050600181019050613193565b5050505092915050565b6000813590506131d981614230565b92915050565b600082601f8301126131f057600080fd5b81356132036131fe82613f99565b613f44565b9150808252602083016020830185838301111561321f57600080fd5b61322a8382846141c6565b50505092915050565b60008135905061324281614247565b92915050565b6000813590506132578161425e565b92915050565b60006020828403121561326f57600080fd5b600061327d84828501613132565b91505092915050565b60008060006060848603121561329b57600080fd5b60006132a986828701613132565b93505060206132ba86828701613132565b92505060406132cb86828701613233565b9150509250925092565b6000806000606084860312156132ea57600080fd5b600084013567ffffffffffffffff81111561330457600080fd5b61331086828701613147565b935050602061332186828701613233565b925050604061333286828701613233565b9150509250925092565b60006020828403121561334e57600080fd5b600061335c848285016131ca565b91505092915050565b60008060006060848603121561337a57600080fd5b600084013567ffffffffffffffff81111561339457600080fd5b6133a0868287016131df565b93505060206133b186828701613233565b92505060406133c286828701613233565b9150509250925092565b6000602082840312156133de57600080fd5b60006133ec84828501613233565b91505092915050565b60006020828403121561340757600080fd5b600061341584828501613248565b91505092915050565b6000806040838503121561343157600080fd5b600061343f85828601613248565b925050602061345085828601613132565b9150509250929050565b60008060006060848603121561346f57600080fd5b600061347d86828701613248565b935050602084013567ffffffffffffffff81111561349a57600080fd5b6134a6868287016131df565b92505060406134b786828701613132565b9150509250925092565b60006134cd8383613541565b60208301905092915050565b60006134e5838361380d565b60208301905092915050565b60006134fd838361382b565b905092915050565b60006135118383613a83565b905092915050565b60006135258383613b96565b905092915050565b60006135398383613c46565b905092915050565b61354a81614164565b82525050565b61355981614164565b82525050565b600061356a82614025565b61357481856140cb565b935061357f83613fc5565b8060005b838110156135b057815161359788826134c1565b97506135a28361407d565b925050600181019050613583565b5085935050505092915050565b60006135c882614030565b6135d281856140dc565b93506135dd83613fd5565b8060005b8381101561360e5781516135f588826134d9565b97506136008361408a565b9250506001810190506135e1565b5085935050505092915050565b60006136268261403b565b61363081856140ed565b93508360208202850161364285613fe5565b8060005b8581101561367e578484038952815161365f85826134f1565b945061366a83614097565b925060208a01995050600181019050613646565b50829750879550505050505092915050565b600061369b82614046565b6136a581856140fe565b9350836020820285016136b785613ff5565b8060005b858110156136f357848403895281516136d48582613505565b94506136df836140a4565b925060208a019950506001810190506136bb565b50829750879550505050505092915050565b600061371082614051565b61371a818561410f565b93508360208202850161372c85614005565b8060005b8581101561376857848403895281516137498582613519565b9450613754836140b1565b925060208a01995050600181019050613730565b50829750879550505050505092915050565b60006137858261405c565b61378f8185614120565b9350836020820285016137a185614015565b8060005b858110156137dd57848403895281516137be858261352d565b94506137c9836140be565b925060208a019950506001810190506137a5565b50829750879550505050505092915050565b6137f881614176565b82525050565b61380781614176565b82525050565b61381681614182565b82525050565b61382581614182565b82525050565b600061383682614067565b6138408185614131565b93506138508185602086016141d5565b61385981614208565b840191505092915050565b600061386f82614072565b6138798185614142565b93506138898185602086016141d5565b61389281614208565b840191505092915050565b60006138aa601e83614153565b91507f596f7520617265206e6f742074686520636f6e7472616374206f776e657200006000830152602082019050919050565b60006138ea600c83614153565b91507f4e6f7420616c6c6f7765642e00000000000000000000000000000000000000006000830152602082019050919050565b600061392a601a83614153565b91507f436f6e766572736174696f6e20646f65736e27742065786973740000000000006000830152602082019050919050565b600061396a600b83614153565b91507f4e6f7420616c6c6f7765640000000000000000000000000000000000000000006000830152602082019050919050565b60006139aa601683614153565b91507f596f7520617265206e6f742072656769737465726564000000000000000000006000830152602082019050919050565b60006139ea602283614153565b91507f4d657373616765206f776e657220646f6573206e6f74206166666f726420746860008301527f69730000000000000000000000000000000000000000000000000000000000006020830152604082019050919050565b6000613a50601b83614153565b91507f436f6e766572736174696f6e20646f6573206e6f7420657869737400000000006000830152602082019050919050565b6000608083016000830151613a9b6000860182613d20565b506020830151613aae6020860182613541565b5060408301518482036040860152613ac6828261382b565b9150506060830151613adb60608601826137ef565b508091505092915050565b600061010083016000830151613aff6000860182613541565b506020830151613b126020860182613541565b506040830151613b256040860182613d20565b506060830151613b386060860182613d20565b506080830151613b4b60808601826137ef565b5060a083015184820360a0860152613b638282613690565b91505060c0830151613b7860c0860182613d3e565b5060e0830151613b8b60e0860182613d20565b508091505092915050565b600061010083016000830151613baf6000860182613541565b506020830151613bc26020860182613541565b506040830151613bd56040860182613d20565b506060830151613be86060860182613d20565b506080830151613bfb60808601826137ef565b5060a083015184820360a0860152613c138282613690565b91505060c0830151613c2860c0860182613d3e565b5060e0830151613c3b60e0860182613d20565b508091505092915050565b600061012083016000830151613c5f6000860182613d20565b506020830151613c726020860182613541565b5060408301518482036040860152613c8a8282613864565b91505060608301518482036060860152613ca4828261355f565b91505060808301518482036080860152613cbe828261361b565b91505060a083015184820360a0860152613cd882826135bd565b91505060c0830151613ced60c0860182613d20565b5060e0830151613d0060e0860182613d20565b50610100830151613d156101008601826137ef565b508091505092915050565b613d29816141ac565b82525050565b613d38816141ac565b82525050565b613d47816141b6565b82525050565b6000602082019050613d626000830184613550565b92915050565b60006020820190508181036000830152613d828184613705565b905092915050565b60006020820190508181036000830152613da4818461377a565b905092915050565b6000602082019050613dc160008301846137fe565b92915050565b6000602082019050613ddc600083018461381c565b92915050565b60006020820190508181036000830152613dfb8161389d565b9050919050565b60006020820190508181036000830152613e1b816138dd565b9050919050565b60006020820190508181036000830152613e3b8161391d565b9050919050565b60006020820190508181036000830152613e5b8161395d565b9050919050565b60006020820190508181036000830152613e7b8161399d565b9050919050565b60006020820190508181036000830152613e9b816139dd565b9050919050565b60006020820190508181036000830152613ebb81613a43565b9050919050565b60006020820190508181036000830152613edc8184613ae6565b905092915050565b6000602082019050613ef96000830184613d2f565b92915050565b6000608082019050613f146000830187613d2f565b613f216020830186613d2f565b613f2e604083018561381c565b613f3b60608301846137fe565b95945050505050565b6000604051905081810181811067ffffffffffffffff82111715613f6757600080fd5b8060405250919050565b600067ffffffffffffffff821115613f8857600080fd5b602082029050602081019050919050565b600067ffffffffffffffff821115613fb057600080fd5b601f19601f8301169050602081019050919050565b6000819050602082019050919050565b6000819050602082019050919050565b6000819050602082019050919050565b6000819050602082019050919050565b6000819050602082019050919050565b6000819050602082019050919050565b600081519050919050565b600081519050919050565b600081519050919050565b600081519050919050565b600081519050919050565b600081519050919050565b600081519050919050565b600081519050919050565b6000602082019050919050565b6000602082019050919050565b6000602082019050919050565b6000602082019050919050565b6000602082019050919050565b6000602082019050919050565b600082825260208201905092915050565b600082825260208201905092915050565b600082825260208201905092915050565b600082825260208201905092915050565b600082825260208201905092915050565b600082825260208201905092915050565b600082825260208201905092915050565b600082825260208201905092915050565b600082825260208201905092915050565b600061416f8261418c565b9050919050565b60008115159050919050565b6000819050919050565b600073ffffffffffffffffffffffffffffffffffffffff82169050919050565b6000819050919050565b600063ffffffff82169050919050565b82818337600083830152505050565b60005b838110156141f35780820151818401526020810190506141d8565b83811115614202576000848401525b50505050565b6000601f19601f8301169050919050565b61422281614164565b811461422d57600080fd5b50565b61423981614182565b811461424457600080fd5b50565b614250816141ac565b811461425b57600080fd5b50565b614267816141b6565b811461427257600080fd5b5056fea365627a7a72315820ca23ff8d46743cdc9a823a281bc02c1bbf54948fa524c9cf0ecb3c9291d2614b6c6578706572696d656e74616cf564736f6c63430005100040",
  "source": "// SPDX-License-Identifier: GPL-3.0\npragma solidity >=0.4.16 <0.9.0;\npragma experimental ABIEncoderV2;\n\ncontract IntroMoney {\n  address owner;\n\n  struct User {\n    uint256 id;\n    uint256 balance;\n    bytes32 username;\n    bool exists;\n  }\n  uint256 userId;\n  mapping(address => User) public users;\n  address[] public usersList;\n\n  struct Message {\n    uint256 id;\n    address owner;\n    string text;\n    address[] reader;\n    bytes[] encryptedMessages;\n    bytes32[] usedPasswords;\n    uint256 readReward;\n    uint256 replyReward;\n    bool exists;\n  }\n  uint256 messageId;\n  mapping(uint256 => Message) messages;\n\n  struct ConversationMessage {\n    uint256 id;\n    address owner;\n    bytes text;\n    bool exists;\n  }\n  struct Conversation {\n    address owner;\n    address recipient;\n    uint256 readReward;\n    uint256 replyReward;\n    bool exists;\n    ConversationMessage[] messages;\n    uint32 id;\n    uint256 messageId;\n  }\n  uint32 conversationId;\n\n  mapping(address => uint32[]) ownerConversations;\n  mapping(address => uint32[]) recipientConversations;\n  mapping(uint32 => Conversation) conversations;\n  mapping(uint32 => address) paidReads;\n  mapping(uint32 => address) paidReplies;\n\n  function createConversation(\n    bytes memory _encryptedMessage,\n    uint256 _readReward,\n    uint256 _replyReward\n  ) public returns (bool) {\n    require(isRegistered(msg.sender), \"You are not registered\");\n\n    conversations[conversationId].owner = msg.sender;\n    conversations[conversationId].readReward = _readReward;\n    conversations[conversationId].replyReward = _replyReward;\n    conversations[conversationId].exists = true;\n    ConversationMessage memory message =\n      ConversationMessage({\n        id: conversations[conversationId].messageId,\n        owner: msg.sender,\n        text: _encryptedMessage,\n        exists: true\n      });\n    conversations[conversationId].messages.push(message);\n    ownerConversations[msg.sender].push(conversationId);\n    conversations[conversationId].messageId++;\n    conversations[conversationId].id = conversationId;\n    conversationId++;\n\n    // emit CreateConversation(msg.sender, messageId);\n    // emit CreateMessage(msg.sender, messageId);\n\n    return true;\n  }\n\n  function addMessageToConversation(\n    uint32 _conversationId,\n    bytes memory _encryptedMessage,\n    address _participant\n  ) public returns (bool) {\n    require(isOwner(msg.sender), \"You are not the contract owner\");\n    require(\n      conversations[_conversationId].exists == true,\n      \"Conversation does not exist\"\n    );\n    require(\n      conversations[_conversationId].owner == _participant ||\n        conversations[_conversationId].recipient == _participant,\n      \"Not allowed.\"\n    );\n\n    if (\n      conversations[_conversationId].recipient == _participant &&\n      paidReplies[_conversationId] == address(0)\n    ) {\n      require(\n        users[conversations[_conversationId].owner].balance >=\n          conversations[_conversationId].replyReward,\n        \"Message owner does not afford this\"\n      );\n      users[conversations[_conversationId].owner].balance -= conversations[\n        _conversationId\n      ]\n        .replyReward;\n      users[_participant].balance += conversations[_conversationId].replyReward;\n    }\n\n    ConversationMessage memory message =\n      ConversationMessage({\n        id: conversations[conversationId].messageId,\n        owner: _participant,\n        text: _encryptedMessage,\n        exists: true\n      });\n    conversations[conversationId].messages.push(message);\n    conversations[conversationId].messageId++;\n\n    return true;\n  }\n\n  function readConversationByParticipant(\n    uint32 _conversationId,\n    address _participant\n  ) public returns (bool) {\n    require(isOwner(msg.sender), \"You are not the contract owner\");\n    require(\n      conversations[_conversationId].exists == true,\n      \"Conversation does not exist\"\n    );\n    require(\n      conversations[_conversationId].recipient == address(0),\n      \"Not allowed\"\n    );\n    require(\n      users[conversations[_conversationId].owner].balance >=\n        conversations[_conversationId].readReward,\n      \"Message owner does not afford this\"\n    );\n\n    conversations[_conversationId].recipient = _participant;\n    users[conversations[_conversationId].owner].balance -= conversations[\n      _conversationId\n    ]\n      .readReward;\n    users[_participant].balance += conversations[_conversationId].readReward;\n\n    recipientConversations[_participant].push(conversationId);\n    paidReads[_conversationId] = _participant;\n\n    return true;\n  }\n\n  function isOwner(address _owner) public view returns (bool) {\n    return owner == _owner;\n  }\n\n  function getConversations() public view returns (Conversation[] memory) {\n    require(isRegistered(msg.sender));\n\n    Conversation[] memory userConversations =\n      new Conversation[](\n        ownerConversations[msg.sender].length +\n          recipientConversations[msg.sender].length\n      );\n    uint256 j = 0;\n    for (uint256 i = 0; i < ownerConversations[msg.sender].length; i++) {\n      userConversations[j++] = conversations[ownerConversations[msg.sender][i]];\n    }\n\n    for (uint256 i = 0; i < recipientConversations[msg.sender].length; i++) {\n      userConversations[j++] = conversations[\n        recipientConversations[msg.sender][i]\n      ];\n    }\n\n    return userConversations;\n  }\n\n  function getConversation(uint32 _conversationId)\n    public\n    view\n    returns (Conversation memory)\n  {\n    require(isRegistered(msg.sender), \"You are not registered\");\n    require(\n      conversations[_conversationId].exists,\n      \"Conversation doesn't exist\"\n    );\n    require(\n      conversations[_conversationId].recipient == address(0) ||\n        conversations[_conversationId].recipient == msg.sender ||\n        conversations[_conversationId].owner == msg.sender,\n      \"Not allowed\"\n    );\n\n    return conversations[_conversationId];\n  }\n\n  mapping(address => uint256[]) userCreatedMessages;\n  mapping(address => uint256[]) userReadMessages;\n\n  event Deposit(address indexed _from, uint256 _value);\n  event CreateMessage(address indexed _from, uint256 _messageId);\n  event Register(address indexed _from);\n\n  // create conversation with password\n  // add message to conversation - by the owner with the api call after password verification\n  // transferReadReward method to transfer the read reward to the reader - by the owner with the api call\n  // save reader address to local storage\n  // save reader address to local storage for that message\n  // save reader address to local storage for that message read payment\n  // if add message to conversation by the replier - by the owner with the api call after password verification\n  // transferRepyReward method to transfer the reply reward to the reader - by the owner with the api call\n  // save reader address to local storage for that message\n  // save reader address to local storage for that message payment\n  // if other address opens that conversation => throw error\n  // create username index to allow search by username\n\n  constructor(\n    uint256 _messageId,\n    uint256 _userId,\n    uint32 _conversationId,\n    address _owner\n  ) public {\n    messageId = _messageId; // should be 1\n    userId = _userId; // should be 1\n    owner = _owner;\n    conversationId = _conversationId;\n  }\n\n  function register(bytes32 _username) public returns (bool) {\n    require(!isRegistered(msg.sender));\n\n    users[msg.sender] = User({\n      balance: 0 wei,\n      username: _username,\n      id: userId,\n      exists: true\n    });\n    // usersList.push(msg.sender) - 1;\n    // users[msg.sender].balance = 0;\n    // users[msg.sender].username = _username;\n    // users[msg.sender].id = userId;\n    // users[msg.sender].exists = true;\n    emit Register(msg.sender);\n    userId++;\n\n    return true;\n  }\n\n  function isRegistered(address sender) public view returns (bool) {\n    return users[sender].exists;\n  }\n\n  function deposit() public payable returns (bool) {\n    require(isRegistered(msg.sender));\n\n    users[msg.sender].balance += msg.value;\n    emit Deposit(msg.sender, msg.value);\n\n    return true;\n  }\n\n  function balance() public view returns (uint256) {\n    require(isRegistered(msg.sender));\n\n    return users[msg.sender].balance;\n  }\n\n  function username() public view returns (bytes32) {\n    require(isRegistered(msg.sender));\n\n    return users[msg.sender].username;\n  }\n\n  function createMessages(\n    bytes32[] memory _encryptedMessages,\n    uint256 _readReward,\n    uint256 _replyReward\n  ) public returns (bool) {\n    require(isRegistered(msg.sender));\n    require(_encryptedMessages.length > 0);\n\n    messages[messageId].owner = msg.sender;\n    messages[messageId].id = messageId;\n    messages[messageId].exists = true;\n    messages[messageId].readReward = _readReward;\n    messages[messageId].replyReward = _replyReward;\n    for (uint256 i = 0; i < _encryptedMessages.length; i++) {\n      // messages[messageId].encryptedMessages.push(_encryptedMessages[i]);\n    }\n    userCreatedMessages[msg.sender].push(messageId);\n    emit CreateMessage(msg.sender, messageId);\n    messageId++;\n\n    return true;\n  }\n\n  function createMessage(\n    bytes memory _encryptedMessage,\n    uint256 _readReward,\n    uint256 _replyReward\n  ) public returns (bool) {\n    require(isRegistered(msg.sender));\n\n    messages[messageId].owner = msg.sender;\n    messages[messageId].id = messageId;\n    messages[messageId].exists = true;\n    messages[messageId].readReward = _readReward;\n    messages[messageId].replyReward = _replyReward;\n    messages[messageId].encryptedMessages.push(_encryptedMessage);\n    userCreatedMessages[msg.sender].push(messageId);\n    emit CreateMessage(msg.sender, messageId);\n    messageId++;\n\n    return true;\n  }\n\n  function getMessages() public view returns (Message[] memory) {\n    require(isRegistered(msg.sender));\n\n    Message[] memory userMessages =\n      new Message[](userCreatedMessages[msg.sender].length);\n    for (uint256 i = 0; i < userCreatedMessages[msg.sender].length; i++) {\n      userMessages[i] = messages[userCreatedMessages[msg.sender][i]];\n    }\n\n    return userMessages;\n  }\n\n  function transfer(\n    address recipientAddress,\n    address fromAddress,\n    uint256 amount\n  ) public returns (bool) {}\n\n  function widthraw() public returns (bool) {}\n}\n",
  "sourcePath": "/Users/ibuzila001/Projects/bnb-smart-chain-app/contracts/IntroMoney.sol",
  "compiler": {
    "name": "solc",
    "version": "0.5.16+commit.9c3226ce.Emscripten.clang"
  },
  "schemaVersion": "3.3.4",
  "updatedAt": "2021-04-16T16:05:15.212Z",
  "devdoc": {
    "methods": {}
  },
  "userdoc": {
    "methods": {}
  }
}